:100000000C945D000C9485000C9485000C94850084
:100010000C9485000C9485000C9485000C9485004C
:100020000C9485000C9485000C9485000C9485003C
:100030000C9485000C9485000C9485000C9485002C
:100040000C9463020C9485000C94D3020C94AD02C2
:100050000C9485000C9485000C9485000C9485000C
:100060000C9485000C94850000000008000201003B
:100070000003040700000000000000000000000072
:10008000250028002B0000000000240027002A0083
:10009000040404040404040402020202020203032E
:1000A0000303030301020408102040800102040836
:1000B00010200102040810204C0411241FBECFEFB1
:1000C000D8E0DEBFCDBF11E0A0E0B1E0E8EBF9E0A1
:1000D00002C005900D92A633B107D9F721E0A6E33F
:1000E000B1E001C01D92AC3DB207E1F710E0CDE5F3
:1000F000D0E004C02197FE010E94D404CC35D10782
:10010000C9F70E9405030C94DA040C94000090E0F7
:10011000FC01EC55FF4F249180579F4FFC018491C7
:10012000882399F090E0880F991FFC01EA57FF4F50
:10013000A591B491FC01E458FF4F859194918FB73C
:10014000F894EC91E22BEC938FBF089590E0FC01C2
:10015000E859FF4F2491FC01EC55FF4F3491FC010D
:10016000E057FF4FE491EE23C9F0222339F023300A
:1001700001F1A8F4213019F1223029F1F0E0EE0F5D
:10018000FF1FE458FF4FA591B4918FB7F894EC91FD
:10019000611126C030953E233C938FBF08952730D0
:1001A000A9F02830C9F0243049F7809180008F7D74
:1001B00003C0809180008F7780938000DFCF84B56B
:1001C0008F7784BDDBCF84B58F7DFBCF8091B0006E
:1001D0008F778093B000D2CF8091B0008F7DF9CF20
:1001E0003E2BDACF3FB7F89480913B0190913C01D0
:1001F000A0913D01B0913E0126B5A89B05C02F3FBF
:1002000019F00196A11DB11D3FBFBA2FA92F982F3C
:100210008827BC01CD01620F711D811D911D42E037
:10022000660F771F881F991F4A95D1F708958F92FF
:100230009F92AF92BF92CF92DF92EF92FF924B01CB
:100240005C010E94F2006B017C010E94F2006C19BB
:100250007D098E099F09683E734081059105A8F3C9
:1002600021E0821A9108A108B10888EEC80E83E047
:10027000D81EE11CF11C81149104A104B10429F7DA
:10028000FF90EF90DF90CF90BF90AF909F908F90B6
:100290000895AF92BF92CF92DF92EF92FF920F93A9
:1002A0001F93CF93DF936C017B018B01040F151F0C
:1002B000EB015E01AE18BF08C017D10759F0699174
:1002C000D601ED91FC910190F081E02DC6010995D8
:1002D000892B79F7C501DF91CF911F910F91FF9085
:1002E000EF90DF90CF90BF90AF900895FC01538DB9
:1002F000448D252F30E0842F90E0821B930B541700
:1003000010F0CF96089501970895FC01918D828D8C
:10031000981761F0A28DAE0FBF2FB11D5D968C9125
:10032000928D9F5F9F73928F90E008958FEF9FEF64
:100330000895FC01918D828D981731F0828DE80F20
:10034000F11D858D90E008958FEF9FEF0895FC01DA
:10035000918D228D892F90E0805C9F4F821B9109A7
:100360008F73992708958FE391E00E94A70121E000
:10037000892B09F420E0822F089580E090E0892BFA
:1003800029F00E94B30181110C9400000895FC0132
:10039000A48DA80FB92FB11DA35ABF4F2C91848DE6
:1003A00090E001968F739927848FA689B7892C9343
:1003B000A089B1898C91837080648C93938D848D96
:1003C000981306C00288F389E02D80818F7D808399
:1003D0000895EF92FF920F931F93CF93DF93EC0159
:1003E00081E0888F9B8D8C8D98131AC0E889F989DC
:1003F000808185FF15C09FB7F894EE89FF896083DF
:10040000E889F98980818370806480839FBF81E05F
:1004100090E0DF91CF911F910F91FF90EF900895A1
:10042000F62E0B8D10E00F5F1F4F0F731127E02E7C
:100430008C8D8E110CC00FB607FCFACFE889F989B4
:10044000808185FFF5CFCE010E94C701F1CFEB8DF2
:10045000EC0FFD2FF11DE35AFF4FF0829FB7F89488
:100460000B8FEA89FB8980818062CFCFCF93DF93A6
:10047000EC01888D8823B9F0AA89BB89E889F989BC
:100480008C9185FD03C0808186FD0DC00FB607FCF1
:10049000F7CF8C9185FFF2CF808185FFEDCFCE0124
:1004A0000E94C701E9CFDF91CF910895FC0101902F
:1004B0000020E9F73197AF01481B590BBC018FE3CE
:1004C00091E00C9449011F920F920FB60F921124E4
:1004D0002F933F938F939F93AF93BF938091370157
:1004E00090913801A0913901B0913A0130913601D3
:1004F00023E0230F2D3758F50196A11DB11D209340
:1005000036018093370190933801A0933901B0935D
:100510003A0180913B0190913C01A0913D01B09145
:100520003E010196A11DB11D80933B0190933C01BA
:10053000A0933D01B0933E01BF91AF919F918F91E8
:100540003F912F910F900FBE0F901F90189526E8A6
:10055000230F0296A11DB11DD2CF1F920F920FB68D
:100560000F9211242F933F934F935F936F937F9339
:100570008F939F93AF93BF93EF93FF938FE391E09C
:100580000E94C701FF91EF91BF91AF919F918F9111
:100590007F916F915F914F913F912F910F900FBE7F
:1005A0000F901F9018951F920F920FB60F92112463
:1005B0002F938F939F93EF93FF93E0914F01F091CF
:1005C00050018081E0915501F091560182FD1BC0E0
:1005D0009081809158018F5F8F732091590182170C
:1005E00041F0E0915801F0E0E15CFE4F958F80937F
:1005F0005801FF91EF919F918F912F910F900FBE16
:100600000F901F9018958081F4CFCF93DF93CDB7D3
:10061000DEB7A1970FB6F894DEBF0FBECDBF7894BA
:1006200084B5826084BD84B5816084BD85B58260F7
:1006300085BD85B5816085BD80916E0081608093A8
:100640006E00109281008091810082608093810011
:100650008091810081608093810080918000816021
:10066000809380008091B10084608093B10080917C
:10067000B00081608093B00080917A0084608093A4
:100680007A0080917A00826080937A0080917A006B
:10069000816080937A0080917A00806880937A00EC
:1006A0001092C10082E00E94870083E00E948700D0
:1006B00084E00E94870085E00E94870086E00E9417
:1006C000870087E00E948700E0914F01F091500180
:1006D00082E08083E0914B01F0914C011082E09127
:1006E0004D01F0914E018FEC808310925701E09103
:1006F0005301F091540186E08083E0915101F09123
:100700005201808180618083E0915101F09152011A
:10071000808188608083E0915101F0915201808155
:1007200080688083E0915101F091520180818F7D3A
:10073000808382E191E00E94560280E4D82E99EDF8
:10074000492E9EEF592E66246A94762C2AE0822E3A
:10075000912CA12CB12C30E0232E30E0332ED092FE
:100760007C0080917A00806480937A0080917A0086
:1007700086FDFCCF2091780030917900032E000C8B
:10078000440B550B2453324041095109A4E6B0E013
:100790000E949804A30192010E94790489017901C1
:1007A00037FF02C0E12CF12C81E291E00E94560259
:1007B00097012536310514F024E630E0032E000CB5
:1007C000440B550B19A27E0181E2E80EF11CCA010F
:1007D000B901A50194010E94A304605DF701629331
:1007E0007F01211531054105510589F7309719F031
:1007F000CF010E94560281E391E00E94560283E3FA
:1008000091E00E94560261E004311105BCF582E0DE
:100810000E94A60061E087E00E94A60068EE73E0F7
:1008200080E090E00E94170160E082E00E94A60054
:1008300060E083E00E94A60060E084E00E94A600E1
:1008400060E085E00E94A60060E086E00E94A600CD
:1008500064E670E080E090E00E94170160E087E0CD
:100860000E94A6002114310409F479CF0E94B3013B
:10087000882309F474CF0E94000071CF83E008320E
:10088000110554F284E00C33110534F285E0003593
:10089000110514F286E0C0CFEFE3F1E0138212827B
:1008A00088EE93E0A0E0B0E084839583A683B783CD
:1008B00084E091E09183808385EC90E09587848744
:1008C00084EC90E09787868780EC90E0918B808B1A
:1008D00081EC90E0938B828B82EC90E0958B848B03
:1008E00086EC90E0978B868B118E128E138E148E71
:1008F0000895052E97FB1EF400940E94900457FD66
:1009000007D00E94A30407FC03D04EF40C9490047B
:1009100050954095309521953F4F4F4F5F4F08952B
:1009200090958095709561957F4F8F4F9F4F08955B
:100930000E94C504A59F900DB49F900DA49F800DAB
:10094000911D11240895A1E21A2EAA1BBB1BFD01C3
:100950000DC0AA1FBB1FEE1FFF1FA217B307E4079E
:10096000F50720F0A21BB30BE40BF50B661F771FF6
:10097000881F991F1A9469F76095709580959095D6
:100980009B01AC01BD01CF010895A29FB001B39FAF
:10099000C001A39F700D811D1124911DB29F700D88
:1009A000811D1124911D0895EE0FFF1F0590F491F4
:0809B000E02D0994F894FFCF3B
:1009B80000000000E901490176013602A70185011E
:1009C800990153656E73657220537461727465641E
:1009D80000536F696C206D6F6973747572653A2086
:0609E8000025000D0A00CD
:00000001FF
