:100000000C9461000C947E000C947E000C947E0095
:100010000C947E000C947E000C947E000C947E0068
:100020000C947E000C947E000C947E000C947E0058
:100030000C947E000C947E000C947E000C947E0048
:100040000C945E010C947E000C947E000C947E0057
:100050000C947E000C947E000C947E000C947E0028
:100060000C947E000C947E00000000002400270009
:100070002A000000000023002600290000000000E4
:10008000250028002B0004040404040404040202D4
:100090000202020203030303030301020408102007
:1000A0004080010204081020010204081020000012
:1000B0000008000201000003040700000000000027
:1000C000000011241FBECFEFD8E0DEBFCDBF11E08E
:1000D000A0E0B1E0E0E3F6E002C005900D92A030B0
:1000E000B107D9F721E0A0E0B1E001C01D92AB302B
:1000F000B207E1F70E94A8010C9416030C940000CB
:10010000833081F028F4813099F08230A9F008958D
:100110008730A9F08830C9F08430B1F48091800034
:100120008F7D03C0809180008F7780938000089539
:1001300084B58F7784BD089584B58F7DFBCF809182
:10014000B0008F778093B00008958091B0008F7DCC
:10015000F9CF1F93CF93DF93E1EBF0E09491EDE9BA
:10016000F0E0D491E9E8F0E0C491CC23B9F0182F85
:10017000992319F0892F0E948000EC2FF0E0EE0FF8
:10018000FF1FE458FF4FA591B4918FB7F894EC91FD
:10019000111108C0D095DE23DC938FBFDF91CF9182
:1001A0001F910895DE2BF8CFCF93DF93282F30E0F7
:1001B000F901E255FF4F8491F901E656FF4FD491C2
:1001C000F901EA57FF4FC491CC23A1F081110E949D
:1001D0008000EC2FF0E0EE0FFF1FEE58FF4FA591CF
:1001E000B491EC91ED2381E090E009F480E0DF919F
:1001F000CF91089580E090E0FACFCF93DF9390E025
:10020000FC01E656FF4F24918A579F4FFC018491D1
:100210008823C9F090E0880F991FFC01E859FF4F2F
:10022000A591B491FC01E458FF4FC591D49161119F
:100230000DC09FB7F8948C91209582238C93888170
:10024000282328839FBFDF91CF910895623051F416
:100250009FB7F8943C91822F809583238C93E881FB
:100260002E2BEFCF8FB7F894EC912E2B2C938FBFC2
:10027000EACF3FB7F8948091050190910601A091D3
:100280000701B091080126B5A89B05C02F3F19F0C2
:100290000196A11DB11D3FBFBA2FA92F982F882706
:1002A000BC01CD01620F711D811D911D42E0660FE1
:1002B000771F881F991F4A95D1F708951F920F92B3
:1002C0000FB60F9211242F933F938F939F93AF9369
:1002D000BF938091010190910201A0910301B0911F
:1002E00004013091000123E0230F2D3758F50196CA
:1002F000A11DB11D20930001809301019093020183
:10030000A0930301B093040180910501909106012F
:10031000A0910701B09108010196A11DB11D809324
:10032000050190930601A0930701B0930801BF91C6
:10033000AF919F918F913F912F910F900FBE0F9092
:100340001F90189526E8230F0296A11DB11DD2CF4C
:10035000789484B5826084BD84B5816084BD85B5A0
:10036000826085BD85B5816085BD80916E008160AC
:1003700080936E0010928100809181008260809352
:100380008100809181008160809381008091800054
:100390008160809380008091B10084608093B1007F
:1003A0008091B00081608093B00080917A00846079
:1003B00080937A0080917A00826080937A008091A5
:1003C0007A00816080937A0080917A0080688093BF
:1003D0007A001092C10062E08DE00E94FD0062E0B0
:1003E0008BE00E94FD0060E08EE00E94FD0061E075
:1003F00083E00E94FD0090E4392E44244A9423E0D7
:10040000522E612C712C01EB10E0C0E0D0E08DE0A9
:100410000E94D40021E0892B09F420E020930A01F6
:100420008BE00E94D40021E0892B09F420E0209386
:10043000090130927C0080917A00806480937A0078
:1004400080917A0086FDFCCF80917800A0917900A0
:1004500090910A019923E1F090910901911118C03E
:10046000BA2FA82F2FEF30E00E940F03A3019201B3
:100470000E94BF02D22EC32EE22EF32E61E083E053
:100480000E94FD00E114F10471F580E00E94A900D2
:100490000E9439014B015C018CE2C82EDD24D3940B
:1004A000E12CF12C0E943901681979098A099B090C
:1004B000683E734081059105A8F321E0C21AD10876
:1004C000E108F10888EE880E83E0981EA11CB11C9B
:1004D000C114D104E104F10429F7209709F497CF5E
:1004E0000E94000094CF2FEFE216F10411F481E096
:1004F000CDCFF8018491833031F148F48130C9F0D7
:100500008230E1F0F0E8EF16F1048CF7BECF8730CF
:1005100031F1883061F18430A9F7809180008062E8
:10052000809380008D2D9C2D90938B0080938A006A
:10053000AFCF84B5806884BDD7BCAACF84B58062B4
:1005400084BDD8BCA5CF8091800080688093800056
:100550008D2D9C2D909389008093880099CF809158
:10056000B00080688093B000D092B30091CF8091AA
:10057000B00080628093B000D092B40089CF052E85
:1005800097FB1EF400940E94D60257FD07D00E94EC
:10059000DE0207FC03D04EF40C94D6025095409531
:1005A000309521953F4F4F4F5F4F0895909580951F
:1005B000709561957F4F8F4F9F4F0895A1E21A2E3E
:1005C000AA1BBB1BFD010DC0AA1FBB1FEE1FFF1FF7
:1005D000A217B307E407F50720F0A21BB30BE40B47
:1005E000F50B661F771F881F991F1A9469F760958E
:1005F0007095809590959B01AC01BD01CF01089548
:10060000A29FB001B39FC001A39F700D811D112453
:10061000911DB29F700D811D1124911D08950E949E
:100620000003B7FF0895821B930B0895F894FFCF42
:00000001FF
